{
  "address": "0x5FbDB2315678afecb367f032d93F642f64180aa3",
  "abi": [
    {
      "inputs": [],
      "stateMutability": "nonpayable",
      "type": "constructor"
    },
    {
      "inputs": [
        {
          "internalType": "uint256",
          "name": "available",
          "type": "uint256"
        },
        {
          "internalType": "uint256",
          "name": "required",
          "type": "uint256"
        }
      ],
      "name": "InsufficientFunds",
      "type": "error"
    },
    {
      "inputs": [],
      "name": "NoListingFound",
      "type": "error"
    },
    {
      "inputs": [],
      "name": "OnlyOwnerCanCancelListing",
      "type": "error"
    },
    {
      "inputs": [],
      "name": "PercetageCantBeAbove100",
      "type": "error"
    },
    {
      "inputs": [],
      "name": "TransferFailed",
      "type": "error"
    },
    {
      "anonymous": false,
      "inputs": [
        {
          "indexed": true,
          "internalType": "uint256",
          "name": "gameId",
          "type": "uint256"
        },
        {
          "indexed": true,
          "internalType": "uint256",
          "name": "price",
          "type": "uint256"
        },
        {
          "indexed": true,
          "internalType": "address",
          "name": "buyer",
          "type": "address"
        }
      ],
      "name": "ItemBought",
      "type": "event"
    },
    {
      "anonymous": false,
      "inputs": [
        {
          "indexed": true,
          "internalType": "string",
          "name": "gameId",
          "type": "string"
        }
      ],
      "name": "ItemCancelled",
      "type": "event"
    },
    {
      "anonymous": false,
      "inputs": [
        {
          "indexed": true,
          "internalType": "uint256",
          "name": "gameId",
          "type": "uint256"
        },
        {
          "indexed": true,
          "internalType": "uint256",
          "name": "price",
          "type": "uint256"
        },
        {
          "indexed": false,
          "internalType": "string",
          "name": "gameName",
          "type": "string"
        },
        {
          "indexed": false,
          "internalType": "string",
          "name": "gameImage",
          "type": "string"
        },
        {
          "indexed": false,
          "internalType": "string[]",
          "name": "tags",
          "type": "string[]"
        },
        {
          "indexed": false,
          "internalType": "string[]",
          "name": "genres",
          "type": "string[]"
        },
        {
          "indexed": false,
          "internalType": "uint256",
          "name": "rating",
          "type": "uint256"
        },
        {
          "indexed": true,
          "internalType": "address",
          "name": "seller",
          "type": "address"
        }
      ],
      "name": "ItemListed",
      "type": "event"
    },
    {
      "anonymous": false,
      "inputs": [
        {
          "indexed": false,
          "internalType": "uint256",
          "name": "newPercentage",
          "type": "uint256"
        }
      ],
      "name": "SellersPercentageChanged",
      "type": "event"
    },
    {
      "inputs": [
        {
          "internalType": "string",
          "name": "listingId",
          "type": "string"
        },
        {
          "internalType": "uint256",
          "name": "gameId",
          "type": "uint256"
        },
        {
          "internalType": "address",
          "name": "seller",
          "type": "address"
        },
        {
          "internalType": "uint256",
          "name": "price",
          "type": "uint256"
        }
      ],
      "name": "buyGameKey",
      "outputs": [],
      "stateMutability": "payable",
      "type": "function"
    },
    {
      "inputs": [
        {
          "internalType": "string",
          "name": "listingId",
          "type": "string"
        }
      ],
      "name": "cancelListing",
      "outputs": [],
      "stateMutability": "nonpayable",
      "type": "function"
    },
    {
      "inputs": [
        {
          "internalType": "uint256",
          "name": "newPercentage",
          "type": "uint256"
        }
      ],
      "name": "changeSellersPercentage",
      "outputs": [],
      "stateMutability": "nonpayable",
      "type": "function"
    },
    {
      "inputs": [],
      "name": "getBalance",
      "outputs": [
        {
          "internalType": "uint256",
          "name": "",
          "type": "uint256"
        }
      ],
      "stateMutability": "view",
      "type": "function"
    },
    {
      "inputs": [],
      "name": "getGamesBought",
      "outputs": [
        {
          "components": [
            {
              "internalType": "uint256",
              "name": "gameId",
              "type": "uint256"
            },
            {
              "internalType": "string",
              "name": "key",
              "type": "string"
            }
          ],
          "internalType": "struct GameKeyMarketplace.BoughtGame[]",
          "name": "",
          "type": "tuple[]"
        }
      ],
      "stateMutability": "view",
      "type": "function"
    },
    {
      "inputs": [
        {
          "components": [
            {
              "internalType": "uint256",
              "name": "id",
              "type": "uint256"
            },
            {
              "internalType": "string",
              "name": "name",
              "type": "string"
            },
            {
              "internalType": "string",
              "name": "image",
              "type": "string"
            },
            {
              "internalType": "uint256",
              "name": "rating",
              "type": "uint256"
            },
            {
              "internalType": "string[]",
              "name": "tags",
              "type": "string[]"
            },
            {
              "internalType": "string[]",
              "name": "genres",
              "type": "string[]"
            }
          ],
          "internalType": "struct GameKeyMarketplace.Game",
          "name": "game",
          "type": "tuple"
        },
        {
          "internalType": "string",
          "name": "listingId",
          "type": "string"
        },
        {
          "internalType": "string",
          "name": "key",
          "type": "string"
        },
        {
          "internalType": "uint256",
          "name": "price",
          "type": "uint256"
        }
      ],
      "name": "listGameKey",
      "outputs": [],
      "stateMutability": "nonpayable",
      "type": "function"
    },
    {
      "inputs": [],
      "name": "withdraw",
      "outputs": [],
      "stateMutability": "nonpayable",
      "type": "function"
    }
  ],
  "transactionHash": "0x4abcb68a016cd5b8f79b7ec8043ccd61d617a94ef85700d3eea03db2bd6ea21f",
  "args": [],
  "numDeployments": 1,
  "solcInputHash": "a9010ab96fd842e3df3b16bdd69bc888",
  "bytecode": "0x60a060405234801561001057600080fd5b506000600260003373ffffffffffffffffffffffffffffffffffffffff1673ffffffffffffffffffffffffffffffffffffffff168152602001908152602001600020819055503373ffffffffffffffffffffffffffffffffffffffff1660808173ffffffffffffffffffffffffffffffffffffffff16815250506063600381905550608051611fe16100b4600039600081816109060152610ec30152611fe16000f3fe6080604052600436106100705760003560e01c806350f8abac1161004e57806350f8abac146100e0578063943f2261146100fc578063a5d23c9d14610125578063bd2811ab1461015057610070565b806312065fe01461007557806334e1aebe146100a05780633ccfd60b146100c9575b600080fd5b34801561008157600080fd5b5061008a610179565b60405161009791906110df565b60405180910390f35b3480156100ac57600080fd5b506100c760048036038101906100c29190611480565b6101c0565b005b3480156100d557600080fd5b506100de610496565b005b6100fa60048036038101906100f59190611599565b61058d565b005b34801561010857600080fd5b50610123600480360381019061011e919061161c565b610a62565b005b34801561013157600080fd5b5061013a610d89565b60405161014791906117f2565b60405180910390f35b34801561015c57600080fd5b5061017760048036038101906101729190611814565b610ec1565b005b6000600260003373ffffffffffffffffffffffffffffffffffffffff1673ffffffffffffffffffffffffffffffffffffffff16815260200190815260200160002054905090565b60008111610203576040517f08c379a00000000000000000000000000000000000000000000000000000000081526004016101fa9061189e565b60405180910390fd5b6000808460405161021491906118fa565b9081526020016040518091039020600101805480602002602001604051908101604052809291908181526020016000905b828210156102f157838290600052602060002001805461026490611940565b80601f016020809104026020016040519081016040528092919081815260200182805461029090611940565b80156102dd5780601f106102b2576101008083540402835291602001916102dd565b820191906000526020600020905b8154815290600101906020018083116102c057829003601f168201915b505050505081526020019060010190610245565b5050505090506040518060800160405280866000015181526020018281526020018381526020013373ffffffffffffffffffffffffffffffffffffffff1681525060008560405161034291906118fa565b9081526020016040518091039020600082015181600001556020820151816001019080519060200190610376929190610fcb565b506040820151816002015560608201518160030160006101000a81548173ffffffffffffffffffffffffffffffffffffffff021916908373ffffffffffffffffffffffffffffffffffffffff1602179055509050506000846040516103db91906118fa565b90815260200160405180910390206001018390806001815401808255809150506001900390600052602060002001600090919091909150908161041e9190611b1d565b503373ffffffffffffffffffffffffffffffffffffffff168286600001517f8efb12141a45e94d4f9d9e05569b2dc3464ec21c451e4f8133bb884ba935fdac886020015189604001518a608001518b60a001518c60600151604051610487959493929190611cea565b60405180910390a45050505050565b6000600260003373ffffffffffffffffffffffffffffffffffffffff1673ffffffffffffffffffffffffffffffffffffffff1681526020019081526020016000205490506000600260003373ffffffffffffffffffffffffffffffffffffffff1673ffffffffffffffffffffffffffffffffffffffff168152602001908152602001600020819055503373ffffffffffffffffffffffffffffffffffffffff166108fc829081150290604051600060405180830381858888f1935050505061058a576040517f90b8ec1800000000000000000000000000000000000000000000000000000000815260040160405180910390fd5b50565b6000808560405161059e91906118fa565b90815260200160405180910390206040518060800160405290816000820154815260200160018201805480602002602001604051908101604052809291908181526020016000905b8282101561069257838290600052602060002001805461060590611940565b80601f016020809104026020016040519081016040528092919081815260200182805461063190611940565b801561067e5780601f106106535761010080835404028352916020019161067e565b820191906000526020600020905b81548152906001019060200180831161066157829003601f168201915b5050505050815260200190600101906105e6565b505050508152602001600282015481526020016003820160009054906101000a900473ffffffffffffffffffffffffffffffffffffffff1673ffffffffffffffffffffffffffffffffffffffff1673ffffffffffffffffffffffffffffffffffffffff1681525050905060008160200151510361073b576040517fe1f7d51900000000000000000000000000000000000000000000000000000000815260040160405180910390fd5b348211156107825734826040517f03eb8b54000000000000000000000000000000000000000000000000000000008152600401610779929190611d59565b60405180910390fd5b60008160200151600183602001515161079b9190611db1565b815181106107ac576107ab611de5565b5b60200260200101519050600182602001515103610830576000866040516107d391906118fa565b90815260200160405180910390206000808201600090556001820160006107fa9190611024565b60028201600090556003820160006101000a81549073ffffffffffffffffffffffffffffffffffffffff02191690555050610880565b60008660405161084091906118fa565b908152602001604051809103902060010180548061086157610860611e14565b5b60019003818190600052602060002001600061087d9190611045565b90555b60006064600354856108929190611e43565b61089c9190611eb4565b905080600260008773ffffffffffffffffffffffffffffffffffffffff1673ffffffffffffffffffffffffffffffffffffffff16815260200190815260200160002060008282546108ed9190611ee5565b9250508190555080346109009190611db1565b600260007f000000000000000000000000000000000000000000000000000000000000000073ffffffffffffffffffffffffffffffffffffffff1673ffffffffffffffffffffffffffffffffffffffff168152602001908152602001600020600082825461096e9190611ee5565b92505081905550600160003373ffffffffffffffffffffffffffffffffffffffff1673ffffffffffffffffffffffffffffffffffffffff1681526020019081526020016000206040518060400160405280888152602001848152509080600181540180825580915050600190039060005260206000209060020201600090919091909150600082015181600001556020820151816001019081610a119190611b1d565b5050503373ffffffffffffffffffffffffffffffffffffffff1684877f39cd056bcfc4b6e195eb99b09c74b00815a367bca4e86f70ecf2e0140401bd5e60405160405180910390a450505050505050565b60008082604051610a7391906118fa565b90815260200160405180910390206040518060800160405290816000820154815260200160018201805480602002602001604051908101604052809291908181526020016000905b82821015610b67578382906000526020600020018054610ada90611940565b80601f0160208091040260200160405190810160405280929190818152602001828054610b0690611940565b8015610b535780601f10610b2857610100808354040283529160200191610b53565b820191906000526020600020905b815481529060010190602001808311610b3657829003601f168201915b505050505081526020019060010190610abb565b505050508152602001600282015481526020016003820160009054906101000a900473ffffffffffffffffffffffffffffffffffffffff1673ffffffffffffffffffffffffffffffffffffffff1673ffffffffffffffffffffffffffffffffffffffff168152505090503373ffffffffffffffffffffffffffffffffffffffff16816060015173ffffffffffffffffffffffffffffffffffffffff1614610c3a576040517fd8f130a000000000000000000000000000000000000000000000000000000000815260040160405180910390fd5b600081602001515103610c79576040517fe1f7d51900000000000000000000000000000000000000000000000000000000815260040160405180910390fd5b600181602001515103610cf357600082604051610c9691906118fa565b9081526020016040518091039020600080820160009055600182016000610cbd9190611024565b60028201600090556003820160006101000a81549073ffffffffffffffffffffffffffffffffffffffff02191690555050610d43565b600082604051610d0391906118fa565b9081526020016040518091039020600101805480610d2457610d23611e14565b5b600190038181906000526020600020016000610d409190611045565b90555b81604051610d5191906118fa565b60405180910390207fb341d5fd45718cbdf95405645588d15d030a27e1f1524c89996127631c2d52c860405160405180910390a25050565b6060600160003373ffffffffffffffffffffffffffffffffffffffff1673ffffffffffffffffffffffffffffffffffffffff168152602001908152602001600020805480602002602001604051908101604052809291908181526020016000905b82821015610eb8578382906000526020600020906002020160405180604001604052908160008201548152602001600182018054610e2790611940565b80601f0160208091040260200160405190810160405280929190818152602001828054610e5390611940565b8015610ea05780601f10610e7557610100808354040283529160200191610ea0565b820191906000526020600020905b815481529060010190602001808311610e8357829003601f168201915b50505050508152505081526020019060010190610dea565b50505050905090565b7f000000000000000000000000000000000000000000000000000000000000000073ffffffffffffffffffffffffffffffffffffffff163373ffffffffffffffffffffffffffffffffffffffff1614610f4f576040517f08c379a0000000000000000000000000000000000000000000000000000000008152600401610f4690611f8b565b60405180910390fd5b6064811115610f8a576040517fbfebd7cb00000000000000000000000000000000000000000000000000000000815260040160405180910390fd5b806003819055507f5f57d478ba1a91693054ea99206e9e8e13a1e4767ee6bfdfb77245eb40d56bb981604051610fc091906110df565b60405180910390a150565b828054828255906000526020600020908101928215611013579160200282015b828111156110125782518290816110029190611b1d565b5091602001919060010190610feb565b5b5090506110209190611085565b5090565b50805460008255906000526020600020908101906110429190611085565b50565b50805461105190611940565b6000825580601f106110635750611082565b601f01602090049060005260206000209081019061108191906110a9565b5b50565b5b808211156110a5576000818161109c9190611045565b50600101611086565b5090565b5b808211156110c25760008160009055506001016110aa565b5090565b6000819050919050565b6110d9816110c6565b82525050565b60006020820190506110f460008301846110d0565b92915050565b6000604051905090565b600080fd5b600080fd5b600080fd5b6000601f19601f8301169050919050565b7f4e487b7100000000000000000000000000000000000000000000000000000000600052604160045260246000fd5b61115c82611113565b810181811067ffffffffffffffff8211171561117b5761117a611124565b5b80604052505050565b600061118e6110fa565b905061119a8282611153565b919050565b600080fd5b6111ad816110c6565b81146111b857600080fd5b50565b6000813590506111ca816111a4565b92915050565b600080fd5b600080fd5b600067ffffffffffffffff8211156111f5576111f4611124565b5b6111fe82611113565b9050602081019050919050565b82818337600083830152505050565b600061122d611228846111da565b611184565b905082815260208101848484011115611249576112486111d5565b5b61125484828561120b565b509392505050565b600082601f830112611271576112706111d0565b5b813561128184826020860161121a565b91505092915050565b600067ffffffffffffffff8211156112a5576112a4611124565b5b602082029050602081019050919050565b600080fd5b60006112ce6112c98461128a565b611184565b905080838252602082019050602084028301858111156112f1576112f06112b6565b5b835b8181101561133857803567ffffffffffffffff811115611316576113156111d0565b5b808601611323898261125c565b855260208501945050506020810190506112f3565b5050509392505050565b600082601f830112611357576113566111d0565b5b81356113678482602086016112bb565b91505092915050565b600060c082840312156113865761138561110e565b5b61139060c0611184565b905060006113a0848285016111bb565b600083015250602082013567ffffffffffffffff8111156113c4576113c361119f565b5b6113d08482850161125c565b602083015250604082013567ffffffffffffffff8111156113f4576113f361119f565b5b6114008482850161125c565b6040830152506060611414848285016111bb565b606083015250608082013567ffffffffffffffff8111156114385761143761119f565b5b61144484828501611342565b60808301525060a082013567ffffffffffffffff8111156114685761146761119f565b5b61147484828501611342565b60a08301525092915050565b6000806000806080858703121561149a57611499611104565b5b600085013567ffffffffffffffff8111156114b8576114b7611109565b5b6114c487828801611370565b945050602085013567ffffffffffffffff8111156114e5576114e4611109565b5b6114f18782880161125c565b935050604085013567ffffffffffffffff81111561151257611511611109565b5b61151e8782880161125c565b925050606061152f878288016111bb565b91505092959194509250565b600073ffffffffffffffffffffffffffffffffffffffff82169050919050565b60006115668261153b565b9050919050565b6115768161155b565b811461158157600080fd5b50565b6000813590506115938161156d565b92915050565b600080600080608085870312156115b3576115b2611104565b5b600085013567ffffffffffffffff8111156115d1576115d0611109565b5b6115dd8782880161125c565b94505060206115ee878288016111bb565b93505060406115ff87828801611584565b9250506060611610878288016111bb565b91505092959194509250565b60006020828403121561163257611631611104565b5b600082013567ffffffffffffffff8111156116505761164f611109565b5b61165c8482850161125c565b91505092915050565b600081519050919050565b600082825260208201905092915050565b6000819050602082019050919050565b61169a816110c6565b82525050565b600081519050919050565b600082825260208201905092915050565b60005b838110156116da5780820151818401526020810190506116bf565b60008484015250505050565b60006116f1826116a0565b6116fb81856116ab565b935061170b8185602086016116bc565b61171481611113565b840191505092915050565b60006040830160008301516117376000860182611691565b506020830151848203602086015261174f82826116e6565b9150508091505092915050565b6000611768838361171f565b905092915050565b6000602082019050919050565b600061178882611665565b6117928185611670565b9350836020820285016117a485611681565b8060005b858110156117e057848403895281516117c1858261175c565b94506117cc83611770565b925060208a019950506001810190506117a8565b50829750879550505050505092915050565b6000602082019050818103600083015261180c818461177d565b905092915050565b60006020828403121561182a57611829611104565b5b6000611838848285016111bb565b91505092915050565b600082825260208201905092915050565b7f5072696365206d7573742062652061626f7665207a65726f0000000000000000600082015250565b6000611888601883611841565b915061189382611852565b602082019050919050565b600060208201905081810360008301526118b78161187b565b9050919050565b600081905092915050565b60006118d4826116a0565b6118de81856118be565b93506118ee8185602086016116bc565b80840191505092915050565b600061190682846118c9565b915081905092915050565b7f4e487b7100000000000000000000000000000000000000000000000000000000600052602260045260246000fd5b6000600282049050600182168061195857607f821691505b60208210810361196b5761196a611911565b5b50919050565b60008190508160005260206000209050919050565b60006020601f8301049050919050565b600082821b905092915050565b6000600883026119d37fffffffffffffffffffffffffffffffffffffffffffffffffffffffffffffffff82611996565b6119dd8683611996565b95508019841693508086168417925050509392505050565b6000819050919050565b6000611a1a611a15611a10846110c6565b6119f5565b6110c6565b9050919050565b6000819050919050565b611a34836119ff565b611a48611a4082611a21565b8484546119a3565b825550505050565b600090565b611a5d611a50565b611a68818484611a2b565b505050565b5b81811015611a8c57611a81600082611a55565b600181019050611a6e565b5050565b601f821115611ad157611aa281611971565b611aab84611986565b81016020851015611aba578190505b611ace611ac685611986565b830182611a6d565b50505b505050565b600082821c905092915050565b6000611af460001984600802611ad6565b1980831691505092915050565b6000611b0d8383611ae3565b9150826002028217905092915050565b611b26826116a0565b67ffffffffffffffff811115611b3f57611b3e611124565b5b611b498254611940565b611b54828285611a90565b600060209050601f831160018114611b875760008415611b75578287015190505b611b7f8582611b01565b865550611be7565b601f198416611b9586611971565b60005b82811015611bbd57848901518255600182019150602085019450602081019050611b98565b86831015611bda5784890151611bd6601f891682611ae3565b8355505b6001600288020188555050505b505050505050565b6000611bfa826116a0565b611c048185611841565b9350611c148185602086016116bc565b611c1d81611113565b840191505092915050565b600081519050919050565b600082825260208201905092915050565b6000819050602082019050919050565b6000611c6083836116e6565b905092915050565b6000602082019050919050565b6000611c8082611c28565b611c8a8185611c33565b935083602082028501611c9c85611c44565b8060005b85811015611cd85784840389528151611cb98582611c54565b9450611cc483611c68565b925060208a01995050600181019050611ca0565b50829750879550505050505092915050565b600060a0820190508181036000830152611d048188611bef565b90508181036020830152611d188187611bef565b90508181036040830152611d2c8186611c75565b90508181036060830152611d408185611c75565b9050611d4f60808301846110d0565b9695505050505050565b6000604082019050611d6e60008301856110d0565b611d7b60208301846110d0565b9392505050565b7f4e487b7100000000000000000000000000000000000000000000000000000000600052601160045260246000fd5b6000611dbc826110c6565b9150611dc7836110c6565b9250828203905081811115611ddf57611dde611d82565b5b92915050565b7f4e487b7100000000000000000000000000000000000000000000000000000000600052603260045260246000fd5b7f4e487b7100000000000000000000000000000000000000000000000000000000600052603160045260246000fd5b6000611e4e826110c6565b9150611e59836110c6565b9250828202611e67816110c6565b91508282048414831517611e7e57611e7d611d82565b5b5092915050565b7f4e487b7100000000000000000000000000000000000000000000000000000000600052601260045260246000fd5b6000611ebf826110c6565b9150611eca836110c6565b925082611eda57611ed9611e85565b5b828204905092915050565b6000611ef0826110c6565b9150611efb836110c6565b9250828201905080821115611f1357611f12611d82565b5b92915050565b7f4f6e6c79206f776e65722063616e206368616e6765207468652070657263656e60008201527f7461676500000000000000000000000000000000000000000000000000000000602082015250565b6000611f75602483611841565b9150611f8082611f19565b604082019050919050565b60006020820190508181036000830152611fa481611f68565b905091905056fea264697066735822122087b677cfe55e7c5c23aec3febf5584d26fed00a04d64c6f595be42456e78850264736f6c63430008120033",
  "devdoc": {
    "kind": "dev",
    "methods": {},
    "version": 1
  },
  "userdoc": {
    "kind": "user",
    "methods": {},
    "version": 1
  },
  "storageLayout": {
    "storage": [
      {
        "astId": 88,
        "contract": "contracts/GameKeyMarketplace.sol:GameKeyMarketplace",
        "label": "listings",
        "offset": 0,
        "slot": "0",
        "type": "t_mapping(t_string_memory_ptr,t_struct(Listings)42_storage)"
      },
      {
        "astId": 94,
        "contract": "contracts/GameKeyMarketplace.sol:GameKeyMarketplace",
        "label": "gamesBought",
        "offset": 0,
        "slot": "1",
        "type": "t_mapping(t_address,t_array(t_struct(BoughtGame)47_storage)dyn_storage)"
      },
      {
        "astId": 98,
        "contract": "contracts/GameKeyMarketplace.sol:GameKeyMarketplace",
        "label": "balances",
        "offset": 0,
        "slot": "2",
        "type": "t_mapping(t_address,t_uint256)"
      },
      {
        "astId": 102,
        "contract": "contracts/GameKeyMarketplace.sol:GameKeyMarketplace",
        "label": "sellersPercentage",
        "offset": 0,
        "slot": "3",
        "type": "t_uint256"
      }
    ],
    "types": {
      "t_address": {
        "encoding": "inplace",
        "label": "address",
        "numberOfBytes": "20"
      },
      "t_array(t_string_storage)dyn_storage": {
        "base": "t_string_storage",
        "encoding": "dynamic_array",
        "label": "string[]",
        "numberOfBytes": "32"
      },
      "t_array(t_struct(BoughtGame)47_storage)dyn_storage": {
        "base": "t_struct(BoughtGame)47_storage",
        "encoding": "dynamic_array",
        "label": "struct GameKeyMarketplace.BoughtGame[]",
        "numberOfBytes": "32"
      },
      "t_mapping(t_address,t_array(t_struct(BoughtGame)47_storage)dyn_storage)": {
        "encoding": "mapping",
        "key": "t_address",
        "label": "mapping(address => struct GameKeyMarketplace.BoughtGame[])",
        "numberOfBytes": "32",
        "value": "t_array(t_struct(BoughtGame)47_storage)dyn_storage"
      },
      "t_mapping(t_address,t_uint256)": {
        "encoding": "mapping",
        "key": "t_address",
        "label": "mapping(address => uint256)",
        "numberOfBytes": "32",
        "value": "t_uint256"
      },
      "t_mapping(t_string_memory_ptr,t_struct(Listings)42_storage)": {
        "encoding": "mapping",
        "key": "t_string_memory_ptr",
        "label": "mapping(string => struct GameKeyMarketplace.Listings)",
        "numberOfBytes": "32",
        "value": "t_struct(Listings)42_storage"
      },
      "t_string_memory_ptr": {
        "encoding": "bytes",
        "label": "string",
        "numberOfBytes": "32"
      },
      "t_string_storage": {
        "encoding": "bytes",
        "label": "string",
        "numberOfBytes": "32"
      },
      "t_struct(BoughtGame)47_storage": {
        "encoding": "inplace",
        "label": "struct GameKeyMarketplace.BoughtGame",
        "members": [
          {
            "astId": 44,
            "contract": "contracts/GameKeyMarketplace.sol:GameKeyMarketplace",
            "label": "gameId",
            "offset": 0,
            "slot": "0",
            "type": "t_uint256"
          },
          {
            "astId": 46,
            "contract": "contracts/GameKeyMarketplace.sol:GameKeyMarketplace",
            "label": "key",
            "offset": 0,
            "slot": "1",
            "type": "t_string_storage"
          }
        ],
        "numberOfBytes": "64"
      },
      "t_struct(Listings)42_storage": {
        "encoding": "inplace",
        "label": "struct GameKeyMarketplace.Listings",
        "members": [
          {
            "astId": 34,
            "contract": "contracts/GameKeyMarketplace.sol:GameKeyMarketplace",
            "label": "gameId",
            "offset": 0,
            "slot": "0",
            "type": "t_uint256"
          },
          {
            "astId": 37,
            "contract": "contracts/GameKeyMarketplace.sol:GameKeyMarketplace",
            "label": "keys",
            "offset": 0,
            "slot": "1",
            "type": "t_array(t_string_storage)dyn_storage"
          },
          {
            "astId": 39,
            "contract": "contracts/GameKeyMarketplace.sol:GameKeyMarketplace",
            "label": "price",
            "offset": 0,
            "slot": "2",
            "type": "t_uint256"
          },
          {
            "astId": 41,
            "contract": "contracts/GameKeyMarketplace.sol:GameKeyMarketplace",
            "label": "owner",
            "offset": 0,
            "slot": "3",
            "type": "t_address"
          }
        ],
        "numberOfBytes": "128"
      },
      "t_uint256": {
        "encoding": "inplace",
        "label": "uint256",
        "numberOfBytes": "32"
      }
    }
  }
}